:100000000A128A11E92F00308A000408840A820744
:10001000003445346E3474346534723420345034D2
:1000200061347334733477346F34723464343A34F3
:100030000034533479347334743465346D3420347B
:100040004C346F3463346B3465346434213400349D
:100050004134633463346534733473342034473447
:10006000723461346E347434653464340034413431
:100070006334633465347334733420344434653406
:0A0080006E346934653464340034D2
:10093A003134323433343434353436343734383469
:10094A0039342A343034233434343834353439346D
:10095A000034F200F101721CB32CB42CB62C7008CE
:10096A00F1070310F00D0310F20C7208031DBE2CE0
:10097A00BF2CB02C710808007E088A007F0882000C
:10098A000A128A11C1240A128A118000840A0408F0
:10099A007D0603190034FF0A0319FE0AC52CE32C4D
:1009AA00730884000A128A1103200A128A110A1291
:1009BA008A117A260A128A110130F3077308840011
:1009CA000A128A1103200A128A11003A031DEE2C18
:1009DA00EF2CD52C08008230F400DD30F300F30B45
:1009EA00F42CF40BF42CF92C02300A128A11CA25C1
:1009FA000A128A1128300A128A11CA250A128A1181
:100A0A000C300A128A11CA250A128A1106300A12F1
:100A1A008A11CA250A128A1101300A128A11CA25B4
:100A2A000A128A1108001D2D0130F0070130F10762
:100A3A007108840083130008F2007008840000081B
:100A4A007206031D292D2A2D312D700884000008F5
:100A5A00031D302D312D192D710884000008F20074
:100A6A00700884000008F30072087302F000F101B4
:100A7A00031CF1030800F601F7011E308312031369
:100A8A0088040130F3007608013E013E4E2D031022
:100A9A00F30DFF3E031D4C2D7308FF3A8805F8013C
:100AAA00F9010130F3007808053E013E5E2D03107E
:100ABA00F30DFF3E031D5C2D730883120313080513
:100ACA00031D682D692D992D0230F5004530F4007B
:100ADA00A930F300F30B6F2DF40B6F2DF50B6F2D6F
:100AEA00762D0130F3007808053E013E7E2D031075
:100AFA00F30DFF3E031D7C2D7308831203130805B3
:100B0A000319882D892D762D0330F00076080A12F4
:100B1A008A11AE240A128A11203E7807F30073085C
:100B2A00840083130008C92D0130F8070318F90A55
:100B3A000030F9077908803AFF0080307F02031DF0
:100B4A00A82D03307802031CAB2DAC2D562D013095
:100B5A00F6070318F70A0030F7077708803AFF000C
:100B6A0080307F02031DBB2D04307602031CBE2D8C
:100B7A00BF2D422D4130F400EE30F300F30BC32DAC
:100B8A00F40BC32D0000402D0800F200831203135A
:100B9A0007107208F00004300310F00CFF3E031D2A
:100BAA00D12D7018D92DDD2D831203130715E02DD1
:100BBA008312031307117208F00005300310F00CBA
:100BCA00FF3E031DE32D7018EB2DEF2D8312031347
:100BDA008715F22D8312031387117208F00006306D
:100BEA000310F00CFF3E031DF52D7018FD2D012E8C
:100BFA00831203130716042E8312031307127208B3
:100C0A00F00007300310F00CFF3E031D072E70188A
:100C1A000F2E132E831203138716162E8312031315
:100C2A00871287140430F1003D30F000F00B1B2EC0
:100C3A00F10B1B2E202E8312031387107218262EF7
:100C4A002A2E8312031307152D2E8312031307115D
:100C5A007208F00001300310F00CFF3E031D302E25
:100C6A007018382E3C2E8312031387153F2E8312D9
:100C7A00031387117208F00002300310F00CFF3ED4
:100C8A00031D422E70184A2E4E2E83120313071686
:100C9A00512E8312031307127208F0000330031057
:100CAA00F00CFF3E031D542E70185C2E602E83122A
:100CBA0003138716632E83120313871287140430D3
:100CCA00F1003D30F000F00B682EF10B682E6D2E0E
:100CDA008312031387100D30F100FB30F000F00B84
:100CEA00742EF10B742E792E0800F200831203136E
:100CFA0007147208F00004300310F00CFF3E031DC5
:100D0A00812E7018892E8D2E831203130715902EAB
:100D1A008312031307117208F00005300310F00C58
:100D2A00FF3E031D932E70189B2E9F2E83120313D2
:100D3A008715A22E8312031387117208F00006305A
:100D4A000310F00CFF3E031DA52E7018AD2EB12E18
:100D5A00831203130716B42E8312031307127208A1
:100D6A00F00007300310F00CFF3E031DB72E701879
:100D7A00BF2EC32E831203138716C62E83120313A4
:100D8A00871287140430F1003D30F000F00BCB2EAF
:100D9A00F10BCB2ED02E8312031387107218D62E86
:100DAA00DA2E831203130715DD2E8312031307119C
:100DBA007208F00001300310F00CFF3E031DE02E14
:100DCA007018E82EEC2E831203138715EF2E831268
:100DDA00031387117208F00002300310F00CFF3E73
:100DEA00031DF22E7018FA2EFE2E83120313071615
:100DFA00012F8312031307127208F0000330031045
:100E0A00F00CFF3E031D042F70180C2F102F8312B5
:100E1A0003138716132F83120313871287140430C0
:100E2A00F1003D30F000F00B182FF10B182F1D2F99
:100E3A008312031387100D30F100FB30F000F00B22
:100E4A00242FF10B242F292F08008316031387015F
:100E5A00E230880083120313870188010A128A117B
:100E6A00F0240A128A1183120313B601B701013062
:100E7A000A128A11CA250A128A110130F3000A12CB
:100E8A008A11D4240A128A11C0300A128A11CA2578
:100E9A000A128A1183120313B801B9010A128A11BC
:100EAA0040250A128A11FF00831203133808313EC3
:100EBA0084007F08831380002A300A128A117A2656
:100ECA000A128A11013083120313B8070318B90AE8
:100EDA000030B9073908803AFF0080307F02031DCD
:100EEA00782F04303802031C7B2F7C2F532F831258
:100EFA000313B5012C30F0003130F1000A128A11C7
:100F0A0018250A128A1170087104031D8D2F8E2F5D
:100F1A00A92F01300A128A11CA250A128A11203011
:100F2A00F3000A128A11D4240A128A113330FC00FF
:100F3A00BB30FB00DF30FA00FA0BA12FFB0BA12F0D
:100F4A00FC0BA12FA82F382F01300A128A11CA25AB
:100F5A000A128A112F30F3000A128A11D4240A12B3
:100F6A008A113330FC00BB30FB00DF30FA00FA0B89
:100F7A00BC2FFB0BBC2FFC0BBC2FC32F01308312E1
:100F8A000313B6070318B70A0030B7073708803AC1
:100F9A00FF0080307F02031DD42F03303602031C6A
:100FAA00D72FD82F3C2F01300A128A11CA250A12CC
:100FBA008A111130F3000A128A11D4240A128A11F2
:100FCA00E52F0A128A11002883133130FD000430FC
:100FDA00FE009D30FF00203084000A128A11C524C9
:100FEA000A128A11B101B201B301B401B501830138
:060FFA000A128A112A2FE1
:02400E007A3FF7
:00000001FF
